:100000000A128A110528000009008316861083123F
:10001000E8308C0003308D004D20861706178612BD
:1000200006128316861306138612061283128E0199
:10003000E8308C0003308D004D201030960096087B
:10004000031928285D20623094004120960B222855
:1000500086146230940000309500442018309600D9
:100060009608031939285B20623094004120960BD2
:1000700033288610623094000030950044201D28FB
:100080004028940B41280800013094020001031C11
:10009000013E9502031C0800442801308C02000137
:1000A000031C013E8D02031C0800613094000030E7
:1000B000950044204D288E0A5E288E038E186328F2
:1000C0000E186B2866280E187528702886170617D4
:1000D00086120612080086130617861606120800F6
:1000E0008613061386160616080086170613861250
:0400F00006160800E8
:02400E00F13F80
:00000001FF
